{
  "_format": "hh-sol-artifact-1",
  "contractName": "LogicV2",
  "sourceName": "contracts/inherit/logic/LogicV2.sol",
  "abi": [
    {
      "inputs": [
        {
          "internalType": "uint256",
          "name": "slot",
          "type": "uint256"
        }
      ],
      "name": "getSlot",
      "outputs": [
        {
          "internalType": "bytes32",
          "name": "n",
          "type": "bytes32"
        }
      ],
      "stateMutability": "view",
      "type": "function"
    },
    {
      "inputs": [],
      "name": "importantDataA",
      "outputs": [
        {
          "internalType": "address",
          "name": "",
          "type": "address"
        }
      ],
      "stateMutability": "view",
      "type": "function"
    },
    {
      "inputs": [],
      "name": "importantDataB",
      "outputs": [
        {
          "internalType": "uint256",
          "name": "",
          "type": "uint256"
        }
      ],
      "stateMutability": "view",
      "type": "function"
    },
    {
      "inputs": [],
      "name": "importantDataC",
      "outputs": [
        {
          "internalType": "bytes32",
          "name": "",
          "type": "bytes32"
        }
      ],
      "stateMutability": "view",
      "type": "function"
    },
    {
      "inputs": [
        {
          "internalType": "address",
          "name": "sender",
          "type": "address"
        }
      ],
      "name": "initialize",
      "outputs": [],
      "stateMutability": "payable",
      "type": "function"
    },
    {
      "inputs": [
        {
          "internalType": "uint256",
          "name": "slot",
          "type": "uint256"
        },
        {
          "internalType": "uint256",
          "name": "num",
          "type": "uint256"
        }
      ],
      "name": "setSlot",
      "outputs": [],
      "stateMutability": "nonpayable",
      "type": "function"
    },
    {
      "inputs": [
        {
          "internalType": "uint256",
          "name": "slot",
          "type": "uint256"
        },
        {
          "internalType": "address",
          "name": "newAddr",
          "type": "address"
        }
      ],
      "name": "setSlot",
      "outputs": [],
      "stateMutability": "nonpayable",
      "type": "function"
    },
    {
      "inputs": [
        {
          "internalType": "uint256",
          "name": "B",
          "type": "uint256"
        }
      ],
      "name": "updateB",
      "outputs": [],
      "stateMutability": "nonpayable",
      "type": "function"
    }
  ],
  "bytecode": "0x608060405234801561001057600080fd5b5061048a806100206000396000f3fe60806040526004361061007b5760003560e01c80639913b5a01161004e5780639913b5a01461013a578063bc0825e914610165578063c4d66de814610190578063e7556bc3146101ac5761007b565b8063168d7c4714610080578063222b9082146100a95780637eba7ba6146100d25780638e6f91e31461010f575b600080fd5b34801561008c57600080fd5b506100a760048036038101906100a29190610326565b6101d5565b005b3480156100b557600080fd5b506100d060048036038101906100cb91906102ea565b6101dc565b005b3480156100de57600080fd5b506100f960048036038101906100f491906102c1565b6101e3565b60405161010691906103aa565b60405180910390f35b34801561011b57600080fd5b506101246101ee565b604051610131919061038f565b60405180910390f35b34801561014657600080fd5b5061014f610214565b60405161015c91906103c5565b60405180910390f35b34801561017157600080fd5b5061017a61021a565b60405161018791906103aa565b60405180910390f35b6101aa60048036038101906101a59190610298565b610220565b005b3480156101b857600080fd5b506101d360048036038101906101ce91906102c1565b610264565b005b8082555050565b8082555050565b600081549050919050565b600560009054906101000a900473ffffffffffffffffffffffffffffffffffffffff1681565b60065481565b60075481565b80600560006101000a81548173ffffffffffffffffffffffffffffffffffffffff021916908373ffffffffffffffffffffffffffffffffffffffff16021790555050565b8060068190555050565b60008135905061027d81610426565b92915050565b6000813590506102928161043d565b92915050565b6000602082840312156102aa57600080fd5b60006102b88482850161026e565b91505092915050565b6000602082840312156102d357600080fd5b60006102e184828501610283565b91505092915050565b600080604083850312156102fd57600080fd5b600061030b85828601610283565b925050602061031c8582860161026e565b9150509250929050565b6000806040838503121561033957600080fd5b600061034785828601610283565b925050602061035885828601610283565b9150509250929050565b61036b816103e0565b82525050565b61037a816103f2565b82525050565b6103898161041c565b82525050565b60006020820190506103a46000830184610362565b92915050565b60006020820190506103bf6000830184610371565b92915050565b60006020820190506103da6000830184610380565b92915050565b60006103eb826103fc565b9050919050565b6000819050919050565b600073ffffffffffffffffffffffffffffffffffffffff82169050919050565b6000819050919050565b61042f816103e0565b811461043a57600080fd5b50565b6104468161041c565b811461045157600080fd5b5056fea26469706673582212206e0adddda93b109633c8689fce48300adf54672b75590e9bbd173339d01865a464736f6c63430008000033",
  "linkReferences": {},
  "deployedLinkReferences": {}
}