{
  "_format": "hh-sol-artifact-1",
  "contractName": "LogicV1",
  "sourceName": "contracts/inherit/logic/LogicV1.sol",
  "abi": [
    {
      "inputs": [
        {
          "internalType": "uint256",
          "name": "slot",
          "type": "uint256"
        }
      ],
      "name": "getSlot",
      "outputs": [
        {
          "internalType": "bytes32",
          "name": "n",
          "type": "bytes32"
        }
      ],
      "stateMutability": "view",
      "type": "function"
    },
    {
      "inputs": [],
      "name": "importantDataA",
      "outputs": [
        {
          "internalType": "address",
          "name": "",
          "type": "address"
        }
      ],
      "stateMutability": "view",
      "type": "function"
    },
    {
      "inputs": [],
      "name": "importantDataB",
      "outputs": [
        {
          "internalType": "uint256",
          "name": "",
          "type": "uint256"
        }
      ],
      "stateMutability": "view",
      "type": "function"
    },
    {
      "inputs": [],
      "name": "importantDataC",
      "outputs": [
        {
          "internalType": "bytes32",
          "name": "",
          "type": "bytes32"
        }
      ],
      "stateMutability": "view",
      "type": "function"
    },
    {
      "inputs": [
        {
          "internalType": "address",
          "name": "sender",
          "type": "address"
        }
      ],
      "name": "initialize",
      "outputs": [],
      "stateMutability": "payable",
      "type": "function"
    },
    {
      "inputs": [
        {
          "internalType": "uint256",
          "name": "slot",
          "type": "uint256"
        },
        {
          "internalType": "uint256",
          "name": "num",
          "type": "uint256"
        }
      ],
      "name": "setSlot",
      "outputs": [],
      "stateMutability": "nonpayable",
      "type": "function"
    },
    {
      "inputs": [
        {
          "internalType": "uint256",
          "name": "B",
          "type": "uint256"
        }
      ],
      "name": "updateB",
      "outputs": [],
      "stateMutability": "nonpayable",
      "type": "function"
    }
  ],
  "bytecode": "0x608060405234801561001057600080fd5b50610413806100206000396000f3fe6080604052600436106100705760003560e01c80639913b5a01161004e5780639913b5a014610106578063bc0825e914610131578063c4d66de81461015c578063e7556bc31461017857610070565b8063168d7c47146100755780637eba7ba61461009e5780638e6f91e3146100db575b600080fd5b34801561008157600080fd5b5061009c600480360381019061009791906102af565b6101a1565b005b3480156100aa57600080fd5b506100c560048036038101906100c09190610286565b6101a8565b6040516100d29190610333565b60405180910390f35b3480156100e757600080fd5b506100f06101b3565b6040516100fd9190610318565b60405180910390f35b34801561011257600080fd5b5061011b6101d9565b604051610128919061034e565b60405180910390f35b34801561013d57600080fd5b506101466101df565b6040516101539190610333565b60405180910390f35b6101766004803603810190610171919061025d565b6101e5565b005b34801561018457600080fd5b5061019f600480360381019061019a9190610286565b610229565b005b8082555050565b600081549050919050565b600560009054906101000a900473ffffffffffffffffffffffffffffffffffffffff1681565b60065481565b60075481565b80600560006101000a81548173ffffffffffffffffffffffffffffffffffffffff021916908373ffffffffffffffffffffffffffffffffffffffff16021790555050565b8060068190555050565b600081359050610242816103af565b92915050565b600081359050610257816103c6565b92915050565b60006020828403121561026f57600080fd5b600061027d84828501610233565b91505092915050565b60006020828403121561029857600080fd5b60006102a684828501610248565b91505092915050565b600080604083850312156102c257600080fd5b60006102d085828601610248565b92505060206102e185828601610248565b9150509250929050565b6102f481610369565b82525050565b6103038161037b565b82525050565b610312816103a5565b82525050565b600060208201905061032d60008301846102eb565b92915050565b600060208201905061034860008301846102fa565b92915050565b60006020820190506103636000830184610309565b92915050565b600061037482610385565b9050919050565b6000819050919050565b600073ffffffffffffffffffffffffffffffffffffffff82169050919050565b6000819050919050565b6103b881610369565b81146103c357600080fd5b50565b6103cf816103a5565b81146103da57600080fd5b5056fea2646970667358221220d8aaf8ec3b474dee8ae0782c8ad8ce8bc0accab285012e48cf2ca3598fe253d364736f6c63430008000033",
  "linkReferences": {},
  "deployedLinkReferences": {}
}