{
  "_format": "hh-sol-artifact-1",
  "contractName": "Registry",
  "sourceName": "contracts/inherit/Registry.sol",
  "abi": [
    {
      "anonymous": false,
      "inputs": [
        {
          "indexed": false,
          "internalType": "address",
          "name": "proxy",
          "type": "address"
        }
      ],
      "name": "ProxyCreated",
      "type": "event"
    },
    {
      "anonymous": false,
      "inputs": [
        {
          "indexed": false,
          "internalType": "string",
          "name": "version",
          "type": "string"
        },
        {
          "indexed": false,
          "internalType": "address",
          "name": "implementation",
          "type": "address"
        }
      ],
      "name": "VersionAdded",
      "type": "event"
    },
    {
      "inputs": [
        {
          "internalType": "string",
          "name": "version",
          "type": "string"
        },
        {
          "internalType": "address",
          "name": "implementation",
          "type": "address"
        }
      ],
      "name": "addVersion",
      "outputs": [],
      "stateMutability": "nonpayable",
      "type": "function"
    },
    {
      "inputs": [
        {
          "internalType": "string",
          "name": "version",
          "type": "string"
        }
      ],
      "name": "createProxy",
      "outputs": [
        {
          "internalType": "contract UpgradeabilityProxy",
          "name": "",
          "type": "address"
        }
      ],
      "stateMutability": "payable",
      "type": "function"
    },
    {
      "inputs": [
        {
          "internalType": "string",
          "name": "version",
          "type": "string"
        }
      ],
      "name": "getVersion",
      "outputs": [
        {
          "internalType": "address",
          "name": "",
          "type": "address"
        }
      ],
      "stateMutability": "view",
      "type": "function"
    }
  ],
  "bytecode": "0x608060405234801561001057600080fd5b50611190806100206000396000f3fe608060405260043610620000385760003560e01c80632200919f146200003d5780633ab50a9c146200006b5780639da8e7e214620000af575b600080fd5b3480156200004a57600080fd5b506200006960048036038101906200006391906200049e565b620000e5565b005b3480156200007857600080fd5b5062000097600480360381019062000091919062000459565b620001fd565b604051620000a69190620005fb565b60405180910390f35b620000cd6004803603810190620000c7919062000459565b62000246565b604051620000dc919062000618565b60405180910390f35b600073ffffffffffffffffffffffffffffffffffffffff166000836040516200010f9190620005e2565b908152602001604051809103902060009054906101000a900473ffffffffffffffffffffffffffffffffffffffff1673ffffffffffffffffffffffffffffffffffffffff16146200015f57600080fd5b80600083604051620001729190620005e2565b908152602001604051809103902060006101000a81548173ffffffffffffffffffffffffffffffffffffffff021916908373ffffffffffffffffffffffffffffffffffffffff1602179055507fe2a08c9e50f4a219841f60ac40fa9d1f2cccb83ac2d3439c8c568fdf1f7c19e48282604051620001f192919062000659565b60405180910390a15050565b60008082604051620002109190620005e2565b908152602001604051809103902060009054906101000a900473ffffffffffffffffffffffffffffffffffffffff169050919050565b600080826040516200025890620003c2565b62000264919062000635565b604051809103906000f08015801562000281573d6000803e3d6000fd5b5090508073ffffffffffffffffffffffffffffffffffffffff1630604051602401620002ae9190620005fb565b6040516020818303038152906040527fc4d66de8000000000000000000000000000000000000000000000000000000007bffffffffffffffffffffffffffffffffffffffffffffffffffffffff19166020820180517bffffffffffffffffffffffffffffffffffffffffffffffffffffffff83818316178352505050506040516200033a9190620005c9565b6000604051808303816000865af19150503d806000811462000379576040519150601f19603f3d011682016040523d82523d6000602084013e6200037e565b606091505b5050507efffc2da0b561cae30d9826d37709e9421c4725faebc226cbbb7ef5fc5e734981604051620003b19190620005fb565b60405180910390a180915050919050565b61092e806200082d83390190565b6000620003e7620003e184620006c1565b6200068d565b9050828152602081018484840111156200040057600080fd5b6200040d8482856200078d565b509392505050565b600081359050620004268162000812565b92915050565b600082601f8301126200043e57600080fd5b813562000450848260208601620003d0565b91505092915050565b6000602082840312156200046c57600080fd5b600082013567ffffffffffffffff8111156200048757600080fd5b62000495848285016200042c565b91505092915050565b60008060408385031215620004b257600080fd5b600083013567ffffffffffffffff811115620004cd57600080fd5b620004db858286016200042c565b9250506020620004ee8582860162000415565b9150509250929050565b620005038162000731565b82525050565b60006200051682620006f4565b6200052281856200070a565b9350620005348185602086016200079c565b80840191505092915050565b6200054b8162000765565b82525050565b60006200055e82620006ff565b6200056a818562000715565b93506200057c8185602086016200079c565b620005878162000801565b840191505092915050565b60006200059f82620006ff565b620005ab818562000726565b9350620005bd8185602086016200079c565b80840191505092915050565b6000620005d7828462000509565b915081905092915050565b6000620005f0828462000592565b915081905092915050565b6000602082019050620006126000830184620004f8565b92915050565b60006020820190506200062f600083018462000540565b92915050565b6000602082019050818103600083015262000651818462000551565b905092915050565b6000604082019050818103600083015262000675818562000551565b9050620006866020830184620004f8565b9392505050565b6000604051905081810181811067ffffffffffffffff82111715620006b757620006b6620007d2565b5b8060405250919050565b600067ffffffffffffffff821115620006df57620006de620007d2565b5b601f19601f8301169050602081019050919050565b600081519050919050565b600081519050919050565b600081905092915050565b600082825260208201905092915050565b600081905092915050565b60006200073e8262000745565b9050919050565b600073ffffffffffffffffffffffffffffffffffffffff82169050919050565b6000620007728262000779565b9050919050565b6000620007868262000745565b9050919050565b82818337600083830152505050565b60005b83811015620007bc5780820151818401526020810190506200079f565b83811115620007cc576000848401525b50505050565b7f4e487b7100000000000000000000000000000000000000000000000000000000600052604160045260246000fd5b6000601f19601f8301169050919050565b6200081d8162000731565b81146200082957600080fd5b5056fe60806040523480156200001157600080fd5b506040516200092e3803806200092e833981810160405281019062000037919062000238565b33600460006101000a81548173ffffffffffffffffffffffffffffffffffffffff021916908373ffffffffffffffffffffffffffffffffffffffff16021790555062000089816200009060201b60201c565b5062000429565b600460009054906101000a900473ffffffffffffffffffffffffffffffffffffffff1673ffffffffffffffffffffffffffffffffffffffff16633ab50a9c826040518263ffffffff1660e01b8152600401620000ed9190620002be565b60206040518083038186803b1580156200010657600080fd5b505afa1580156200011b573d6000803e3d6000fd5b505050506040513d601f19601f820116820180604052508101906200014191906200020c565b6000806101000a81548173ffffffffffffffffffffffffffffffffffffffff021916908373ffffffffffffffffffffffffffffffffffffffff16021790555050565b60006200019a620001948462000316565b620002e2565b905082815260208101848484011115620001b357600080fd5b620001c084828562000399565b509392505050565b600081519050620001d9816200040f565b92915050565b600082601f830112620001f157600080fd5b81516200020384826020860162000183565b91505092915050565b6000602082840312156200021f57600080fd5b60006200022f84828501620001c8565b91505092915050565b6000602082840312156200024b57600080fd5b600082015167ffffffffffffffff8111156200026657600080fd5b6200027484828501620001df565b91505092915050565b60006200028a8262000349565b62000296818562000354565b9350620002a881856020860162000399565b620002b381620003fe565b840191505092915050565b60006020820190508181036000830152620002da81846200027d565b905092915050565b6000604051905081810181811067ffffffffffffffff821117156200030c576200030b620003cf565b5b8060405250919050565b600067ffffffffffffffff821115620003345762000333620003cf565b5b601f19601f8301169050602081019050919050565b600081519050919050565b600082825260208201905092915050565b6000620003728262000379565b9050919050565b600073ffffffffffffffffffffffffffffffffffffffff82169050919050565b60005b83811015620003b95780820151818401526020810190506200039c565b83811115620003c9576000848401525b50505050565b7f4e487b7100000000000000000000000000000000000000000000000000000000600052604160045260246000fd5b6000601f19601f8301169050919050565b6200041a8162000365565b81146200042657600080fd5b50565b6104f580620004396000396000f3fe60806040526004361061002d5760003560e01c80635c60da1b146100a15780636493e64c146100cc57610034565b3661003457005b600061003e6100f5565b9050600073ffffffffffffffffffffffffffffffffffffffff168173ffffffffffffffffffffffffffffffffffffffff16141561007a57600080fd5b60405136600082376000803683855af43d806000843e816000811461009d578184f35b8184fd5b3480156100ad57600080fd5b506100b66100f5565b6040516100c3919061033a565b60405180910390f35b3480156100d857600080fd5b506100f360048036038101906100ee91906102b1565b61011e565b005b60008060009054906101000a900473ffffffffffffffffffffffffffffffffffffffff16905090565b600460009054906101000a900473ffffffffffffffffffffffffffffffffffffffff1673ffffffffffffffffffffffffffffffffffffffff16633ab50a9c826040518263ffffffff1660e01b81526004016101799190610355565b60206040518083038186803b15801561019157600080fd5b505afa1580156101a5573d6000803e3d6000fd5b505050506040513d601f19601f820116820180604052508101906101c99190610288565b6000806101000a81548173ffffffffffffffffffffffffffffffffffffffff021916908373ffffffffffffffffffffffffffffffffffffffff16021790555050565b600061021e610219846103a8565b610377565b90508281526020810184848401111561023657600080fd5b610241848285610426565b509392505050565b600081519050610258816104a8565b92915050565b600082601f83011261026f57600080fd5b813561027f84826020860161020b565b91505092915050565b60006020828403121561029a57600080fd5b60006102a884828501610249565b91505092915050565b6000602082840312156102c357600080fd5b600082013567ffffffffffffffff8111156102dd57600080fd5b6102e98482850161025e565b91505092915050565b6102fb816103f4565b82525050565b600061030c826103d8565b61031681856103e3565b9350610326818560208601610435565b61032f81610497565b840191505092915050565b600060208201905061034f60008301846102f2565b92915050565b6000602082019050818103600083015261036f8184610301565b905092915050565b6000604051905081810181811067ffffffffffffffff8211171561039e5761039d610468565b5b8060405250919050565b600067ffffffffffffffff8211156103c3576103c2610468565b5b601f19601f8301169050602081019050919050565b600081519050919050565b600082825260208201905092915050565b60006103ff82610406565b9050919050565b600073ffffffffffffffffffffffffffffffffffffffff82169050919050565b82818337600083830152505050565b60005b83811015610453578082015181840152602081019050610438565b83811115610462576000848401525b50505050565b7f4e487b7100000000000000000000000000000000000000000000000000000000600052604160045260246000fd5b6000601f19601f8301169050919050565b6104b1816103f4565b81146104bc57600080fd5b5056fea264697066735822122059475da747bb0c4aec9740616249b4951dd70a4afd316ebec3a274a3fac015c164736f6c63430008000033a26469706673582212203e29d5c2f9f94338a6890c0d9ee1e85cbd7e13250ad4310f2f94ee46468a17e164736f6c63430008000033",
  "linkReferences": {},
  "deployedLinkReferences": {}
}