{
  "_format": "hh-sol-artifact-1",
  "contractName": "LogicMock",
  "sourceName": "contracts/inherit/logic/LogicMock.sol",
  "abi": [
    {
      "inputs": [
        {
          "internalType": "uint256",
          "name": "slot",
          "type": "uint256"
        }
      ],
      "name": "getSlot",
      "outputs": [
        {
          "internalType": "bytes32",
          "name": "n",
          "type": "bytes32"
        }
      ],
      "stateMutability": "view",
      "type": "function"
    },
    {
      "inputs": [],
      "name": "importantDataA",
      "outputs": [
        {
          "internalType": "address",
          "name": "",
          "type": "address"
        }
      ],
      "stateMutability": "view",
      "type": "function"
    },
    {
      "inputs": [],
      "name": "importantDataB",
      "outputs": [
        {
          "internalType": "uint256",
          "name": "",
          "type": "uint256"
        }
      ],
      "stateMutability": "view",
      "type": "function"
    },
    {
      "inputs": [],
      "name": "importantDataC",
      "outputs": [
        {
          "internalType": "bytes32",
          "name": "",
          "type": "bytes32"
        }
      ],
      "stateMutability": "view",
      "type": "function"
    },
    {
      "inputs": [
        {
          "internalType": "address",
          "name": "sender",
          "type": "address"
        }
      ],
      "name": "initialize",
      "outputs": [],
      "stateMutability": "nonpayable",
      "type": "function"
    },
    {
      "inputs": [
        {
          "internalType": "uint256",
          "name": "slot",
          "type": "uint256"
        },
        {
          "internalType": "uint256",
          "name": "num",
          "type": "uint256"
        }
      ],
      "name": "setSlot",
      "outputs": [],
      "stateMutability": "nonpayable",
      "type": "function"
    },
    {
      "inputs": [
        {
          "internalType": "uint256",
          "name": "B",
          "type": "uint256"
        }
      ],
      "name": "updateB",
      "outputs": [],
      "stateMutability": "nonpayable",
      "type": "function"
    }
  ],
  "bytecode": "0x608060405234801561001057600080fd5b506103cf806100206000396000f3fe608060405234801561001057600080fd5b506004361061007d5760003560e01c80639913b5a01161005b5780639913b5a0146100ec578063bc0825e91461010a578063c4d66de814610128578063e7556bc3146101445761007d565b8063168d7c47146100825780637eba7ba61461009e5780638e6f91e3146100ce575b600080fd5b61009c6004803603810190610097919061026b565b610160565b005b6100b860048036038101906100b39190610242565b610167565b6040516100c591906102ef565b60405180910390f35b6100d6610172565b6040516100e391906102d4565b60405180910390f35b6100f4610196565b604051610101919061030a565b60405180910390f35b61011261019c565b60405161011f91906102ef565b60405180910390f35b610142600480360381019061013d9190610219565b6101a2565b005b61015e60048036038101906101599190610242565b6101e5565b005b8082555050565b600081549050919050565b60008054906101000a900473ffffffffffffffffffffffffffffffffffffffff1681565b60015481565b60025481565b806000806101000a81548173ffffffffffffffffffffffffffffffffffffffff021916908373ffffffffffffffffffffffffffffffffffffffff16021790555050565b8060018190555050565b6000813590506101fe8161036b565b92915050565b60008135905061021381610382565b92915050565b60006020828403121561022b57600080fd5b6000610239848285016101ef565b91505092915050565b60006020828403121561025457600080fd5b600061026284828501610204565b91505092915050565b6000806040838503121561027e57600080fd5b600061028c85828601610204565b925050602061029d85828601610204565b9150509250929050565b6102b081610325565b82525050565b6102bf81610337565b82525050565b6102ce81610361565b82525050565b60006020820190506102e960008301846102a7565b92915050565b600060208201905061030460008301846102b6565b92915050565b600060208201905061031f60008301846102c5565b92915050565b600061033082610341565b9050919050565b6000819050919050565b600073ffffffffffffffffffffffffffffffffffffffff82169050919050565b6000819050919050565b61037481610325565b811461037f57600080fd5b50565b61038b81610361565b811461039657600080fd5b5056fea26469706673582212207973778371f3a13e3654f06323fabe6f84682458d72c7e81c70168864de39bbd64736f6c63430008000033",
  "linkReferences": {},
  "deployedLinkReferences": {}
}